{
  "address": "0x3Aa5ebB10DC797CAC828524e59A333d0A371443c",
  "abi": [
    {
      "inputs": [
        {
          "internalType": "contract IMasterChef",
          "name": "chef_",
          "type": "address"
        },
        {
          "internalType": "address",
          "name": "maker_",
          "type": "address"
        },
        {
          "internalType": "contract IERC20",
          "name": "sushi_",
          "type": "address"
        },
        {
          "internalType": "contract IERC20",
          "name": "WETH_",
          "type": "address"
        },
        {
          "internalType": "contract IERC20",
          "name": "WBTC_",
          "type": "address"
        },
        {
          "internalType": "contract IFactory",
          "name": "sushiFactory_",
          "type": "address"
        },
        {
          "internalType": "contract IFactory",
          "name": "uniV2Factory_",
          "type": "address"
        },
        {
          "internalType": "contract IERC20",
          "name": "bar_",
          "type": "address"
        },
        {
          "internalType": "contract IBentoBox",
          "name": "bentoBox_",
          "type": "address"
        }
      ],
      "stateMutability": "nonpayable",
      "type": "constructor"
    },
    {
      "inputs": [],
      "name": "WBTC",
      "outputs": [
        {
          "internalType": "contract IERC20",
          "name": "",
          "type": "address"
        }
      ],
      "stateMutability": "view",
      "type": "function"
    },
    {
      "inputs": [],
      "name": "WETH",
      "outputs": [
        {
          "internalType": "contract IERC20",
          "name": "",
          "type": "address"
        }
      ],
      "stateMutability": "view",
      "type": "function"
    },
    {
      "inputs": [],
      "name": "bar",
      "outputs": [
        {
          "internalType": "contract IERC20",
          "name": "",
          "type": "address"
        }
      ],
      "stateMutability": "view",
      "type": "function"
    },
    {
      "inputs": [],
      "name": "bentoBox",
      "outputs": [
        {
          "internalType": "contract IBentoBox",
          "name": "",
          "type": "address"
        }
      ],
      "stateMutability": "view",
      "type": "function"
    },
    {
      "inputs": [],
      "name": "chef",
      "outputs": [
        {
          "internalType": "contract IMasterChef",
          "name": "",
          "type": "address"
        }
      ],
      "stateMutability": "view",
      "type": "function"
    },
    {
      "inputs": [
        {
          "internalType": "address",
          "name": "who",
          "type": "address"
        },
        {
          "internalType": "address[]",
          "name": "addresses",
          "type": "address[]"
        }
      ],
      "name": "findBalances",
      "outputs": [
        {
          "components": [
            {
              "internalType": "contract IERC20",
              "name": "token",
              "type": "address"
            },
            {
              "internalType": "uint256",
              "name": "balance",
              "type": "uint256"
            },
            {
              "internalType": "uint256",
              "name": "bentoBalance",
              "type": "uint256"
            }
          ],
          "internalType": "struct BoringHelper.Balance[]",
          "name": "",
          "type": "tuple[]"
        }
      ],
      "stateMutability": "view",
      "type": "function"
    },
    {
      "inputs": [
        {
          "internalType": "address",
          "name": "who",
          "type": "address"
        },
        {
          "internalType": "uint256[]",
          "name": "pids",
          "type": "uint256[]"
        }
      ],
      "name": "findPools",
      "outputs": [
        {
          "components": [
            {
              "internalType": "uint256",
              "name": "pid",
              "type": "uint256"
            },
            {
              "internalType": "uint256",
              "name": "balance",
              "type": "uint256"
            }
          ],
          "internalType": "struct BoringHelper.PoolFound[]",
          "name": "",
          "type": "tuple[]"
        }
      ],
      "stateMutability": "view",
      "type": "function"
    },
    {
      "inputs": [
        {
          "internalType": "address",
          "name": "who",
          "type": "address"
        },
        {
          "internalType": "contract IERC20[]",
          "name": "addresses",
          "type": "address[]"
        }
      ],
      "name": "getBalances",
      "outputs": [
        {
          "components": [
            {
              "internalType": "contract IERC20",
              "name": "token",
              "type": "address"
            },
            {
              "internalType": "uint256",
              "name": "balance",
              "type": "uint256"
            },
            {
              "internalType": "uint256",
              "name": "bentoBalance",
              "type": "uint256"
            },
            {
              "internalType": "uint256",
              "name": "bentoAllowance",
              "type": "uint256"
            },
            {
              "internalType": "uint128",
              "name": "bentoAmount",
              "type": "uint128"
            },
            {
              "internalType": "uint128",
              "name": "bentoShare",
              "type": "uint128"
            },
            {
              "internalType": "uint256",
              "name": "rate",
              "type": "uint256"
            }
          ],
          "internalType": "struct BoringHelper.BalanceFull[]",
          "name": "",
          "type": "tuple[]"
        }
      ],
      "stateMutability": "view",
      "type": "function"
    },
    {
      "inputs": [
        {
          "internalType": "contract IERC20",
          "name": "token",
          "type": "address"
        }
      ],
      "name": "getETHRate",
      "outputs": [
        {
          "internalType": "uint256",
          "name": "",
          "type": "uint256"
        }
      ],
      "stateMutability": "view",
      "type": "function"
    },
    {
      "inputs": [
        {
          "internalType": "contract IFactory",
          "name": "factory",
          "type": "address"
        },
        {
          "internalType": "uint256",
          "name": "fromID",
          "type": "uint256"
        },
        {
          "internalType": "uint256",
          "name": "toID",
          "type": "uint256"
        }
      ],
      "name": "getPairs",
      "outputs": [
        {
          "components": [
            {
              "internalType": "contract IPair",
              "name": "token",
              "type": "address"
            },
            {
              "internalType": "contract IERC20",
              "name": "token0",
              "type": "address"
            },
            {
              "internalType": "contract IERC20",
              "name": "token1",
              "type": "address"
            },
            {
              "internalType": "uint256",
              "name": "totalSupply",
              "type": "uint256"
            }
          ],
          "internalType": "struct BoringHelper.PairBase[]",
          "name": "",
          "type": "tuple[]"
        }
      ],
      "stateMutability": "view",
      "type": "function"
    },
    {
      "inputs": [
        {
          "internalType": "uint256[]",
          "name": "pids",
          "type": "uint256[]"
        }
      ],
      "name": "getPools",
      "outputs": [
        {
          "components": [
            {
              "internalType": "uint256",
              "name": "totalAllocPoint",
              "type": "uint256"
            },
            {
              "internalType": "uint256",
              "name": "poolLength",
              "type": "uint256"
            }
          ],
          "internalType": "struct BoringHelper.PoolsInfo",
          "name": "",
          "type": "tuple"
        },
        {
          "components": [
            {
              "internalType": "uint256",
              "name": "pid",
              "type": "uint256"
            },
            {
              "internalType": "contract IPair",
              "name": "lpToken",
              "type": "address"
            },
            {
              "internalType": "uint256",
              "name": "allocPoint",
              "type": "uint256"
            },
            {
              "internalType": "bool",
              "name": "isPair",
              "type": "bool"
            },
            {
              "internalType": "contract IFactory",
              "name": "factory",
              "type": "address"
            },
            {
              "internalType": "contract IERC20",
              "name": "token0",
              "type": "address"
            },
            {
              "internalType": "contract IERC20",
              "name": "token1",
              "type": "address"
            },
            {
              "internalType": "string",
              "name": "name",
              "type": "string"
            },
            {
              "internalType": "string",
              "name": "symbol",
              "type": "string"
            },
            {
              "internalType": "uint8",
              "name": "decimals",
              "type": "uint8"
            }
          ],
          "internalType": "struct BoringHelper.PoolInfo[]",
          "name": "",
          "type": "tuple[]"
        }
      ],
      "stateMutability": "view",
      "type": "function"
    },
    {
      "inputs": [
        {
          "internalType": "address[]",
          "name": "addresses",
          "type": "address[]"
        }
      ],
      "name": "getTokenInfo",
      "outputs": [
        {
          "components": [
            {
              "internalType": "contract IERC20",
              "name": "token",
              "type": "address"
            },
            {
              "internalType": "uint256",
              "name": "decimals",
              "type": "uint256"
            },
            {
              "internalType": "string",
              "name": "name",
              "type": "string"
            },
            {
              "internalType": "string",
              "name": "symbol",
              "type": "string"
            }
          ],
          "internalType": "struct BoringHelper.TokenInfo[]",
          "name": "",
          "type": "tuple[]"
        }
      ],
      "stateMutability": "view",
      "type": "function"
    },
    {
      "inputs": [
        {
          "internalType": "address",
          "name": "who",
          "type": "address"
        },
        {
          "internalType": "contract IFactory[]",
          "name": "factoryAddresses",
          "type": "address[]"
        },
        {
          "internalType": "contract IERC20",
          "name": "currency",
          "type": "address"
        }
      ],
      "name": "getUIInfo",
      "outputs": [
        {
          "components": [
            {
              "internalType": "uint256",
              "name": "ethBalance",
              "type": "uint256"
            },
            {
              "internalType": "uint256",
              "name": "sushiBalance",
              "type": "uint256"
            },
            {
              "internalType": "uint256",
              "name": "sushiBarBalance",
              "type": "uint256"
            },
            {
              "internalType": "uint256",
              "name": "xsushiBalance",
              "type": "uint256"
            },
            {
              "internalType": "uint256",
              "name": "xsushiSupply",
              "type": "uint256"
            },
            {
              "internalType": "uint256",
              "name": "sushiBarAllowance",
              "type": "uint256"
            },
            {
              "components": [
                {
                  "internalType": "contract IFactory",
                  "name": "factory",
                  "type": "address"
                },
                {
                  "internalType": "uint256",
                  "name": "allPairsLength",
                  "type": "uint256"
                }
              ],
              "internalType": "struct BoringHelper.Factory[]",
              "name": "factories",
              "type": "tuple[]"
            },
            {
              "internalType": "uint256",
              "name": "ethRate",
              "type": "uint256"
            },
            {
              "internalType": "uint256",
              "name": "sushiRate",
              "type": "uint256"
            },
            {
              "internalType": "uint256",
              "name": "btcRate",
              "type": "uint256"
            },
            {
              "internalType": "uint256",
              "name": "pendingSushi",
              "type": "uint256"
            }
          ],
          "internalType": "struct BoringHelper.UIInfo",
          "name": "",
          "type": "tuple"
        }
      ],
      "stateMutability": "view",
      "type": "function"
    },
    {
      "inputs": [],
      "name": "maker",
      "outputs": [
        {
          "internalType": "address",
          "name": "",
          "type": "address"
        }
      ],
      "stateMutability": "view",
      "type": "function"
    },
    {
      "inputs": [],
      "name": "owner",
      "outputs": [
        {
          "internalType": "address",
          "name": "",
          "type": "address"
        }
      ],
      "stateMutability": "view",
      "type": "function"
    },
    {
      "inputs": [
        {
          "internalType": "address",
          "name": "who",
          "type": "address"
        },
        {
          "internalType": "contract IPair[]",
          "name": "addresses",
          "type": "address[]"
        }
      ],
      "name": "pollPairs",
      "outputs": [
        {
          "components": [
            {
              "internalType": "contract IPair",
              "name": "token",
              "type": "address"
            },
            {
              "internalType": "uint256",
              "name": "reserve0",
              "type": "uint256"
            },
            {
              "internalType": "uint256",
              "name": "reserve1",
              "type": "uint256"
            },
            {
              "internalType": "uint256",
              "name": "totalSupply",
              "type": "uint256"
            },
            {
              "internalType": "uint256",
              "name": "balance",
              "type": "uint256"
            }
          ],
          "internalType": "struct BoringHelper.PairPoll[]",
          "name": "",
          "type": "tuple[]"
        }
      ],
      "stateMutability": "view",
      "type": "function"
    },
    {
      "inputs": [
        {
          "internalType": "address",
          "name": "who",
          "type": "address"
        },
        {
          "internalType": "uint256[]",
          "name": "pids",
          "type": "uint256[]"
        }
      ],
      "name": "pollPools",
      "outputs": [
        {
          "components": [
            {
              "internalType": "uint256",
              "name": "pid",
              "type": "uint256"
            },
            {
              "internalType": "uint256",
              "name": "balance",
              "type": "uint256"
            },
            {
              "internalType": "uint256",
              "name": "totalSupply",
              "type": "uint256"
            },
            {
              "internalType": "uint256",
              "name": "lpBalance",
              "type": "uint256"
            },
            {
              "internalType": "uint256",
              "name": "lpTotalSupply",
              "type": "uint256"
            },
            {
              "internalType": "uint256",
              "name": "lpAllowance",
              "type": "uint256"
            },
            {
              "internalType": "uint256",
              "name": "reserve0",
              "type": "uint256"
            },
            {
              "internalType": "uint256",
              "name": "reserve1",
              "type": "uint256"
            },
            {
              "internalType": "uint256",
              "name": "rewardDebt",
              "type": "uint256"
            },
            {
              "internalType": "uint256",
              "name": "pending",
              "type": "uint256"
            }
          ],
          "internalType": "struct BoringHelper.UserPoolInfo[]",
          "name": "",
          "type": "tuple[]"
        }
      ],
      "stateMutability": "view",
      "type": "function"
    },
    {
      "inputs": [
        {
          "internalType": "contract IMasterChef",
          "name": "chef_",
          "type": "address"
        },
        {
          "internalType": "address",
          "name": "maker_",
          "type": "address"
        },
        {
          "internalType": "contract IERC20",
          "name": "sushi_",
          "type": "address"
        },
        {
          "internalType": "contract IERC20",
          "name": "WETH_",
          "type": "address"
        },
        {
          "internalType": "contract IERC20",
          "name": "WBTC_",
          "type": "address"
        },
        {
          "internalType": "contract IFactory",
          "name": "sushiFactory_",
          "type": "address"
        },
        {
          "internalType": "contract IFactory",
          "name": "uniV2Factory_",
          "type": "address"
        },
        {
          "internalType": "contract IERC20",
          "name": "bar_",
          "type": "address"
        },
        {
          "internalType": "contract IBentoBox",
          "name": "bentoBox_",
          "type": "address"
        }
      ],
      "name": "setContracts",
      "outputs": [],
      "stateMutability": "nonpayable",
      "type": "function"
    },
    {
      "inputs": [],
      "name": "sushi",
      "outputs": [
        {
          "internalType": "contract IERC20",
          "name": "",
          "type": "address"
        }
      ],
      "stateMutability": "view",
      "type": "function"
    },
    {
      "inputs": [],
      "name": "sushiFactory",
      "outputs": [
        {
          "internalType": "contract IFactory",
          "name": "",
          "type": "address"
        }
      ],
      "stateMutability": "view",
      "type": "function"
    },
    {
      "inputs": [],
      "name": "uniV2Factory",
      "outputs": [
        {
          "internalType": "contract IFactory",
          "name": "",
          "type": "address"
        }
      ],
      "stateMutability": "view",
      "type": "function"
    }
  ],
  "transactionHash": "0xcf0cd526cdbf00597776ae994c45fe8a4427204b40502b237d3c9a8610012963",
  "args": [
    "0xc2EdaD668740f1aA35E4D8f227fB8E17dcA888Cd",
    "0xE11fc0B43ab98Eb91e9836129d1ee7c3Bc95df50",
    "0x6B3595068778DD592e39A122f4f5a5cF09C90fE2",
    "0xC02aaA39b223FE8D0A0e5C4F27eAD9083C756Cc2",
    "0x2260FAC5E5542a773Aa44fBCfeDf7C193bc2C599",
    "0xC0AEe478e3658e2610c5F7A4A2E1777cE9e4f2Ac",
    "0x5C69bEe701ef814a2B6a3EDD4B1652CB9cc5aA6f",
    "0x8798249c2E607446EfB7Ad49eC89dD1865Ff4272",
    "0xB5891167796722331b7ea7824F036b3Bdcb4531C"
  ],
  "solcInputHash": "83b91f70bb604e27494e2b8538b47e15",
  "bytecode": "0x60a06040523480156200001157600080fd5b5060405162003a1238038062003a128339810160408190526200003491620000dc565b3360601b608052600080546001600160a01b03199081166001600160a01b039b8c1617909155600180548216998b1699909917909855600280548916978a16979097179096556003805488169589169590951790945560048054871693881693909317909255600580548616918716919091179055600680548516918616919091179055600780548416918516919091179055600880549092169216919091179055620001cb565b60008060008060008060008060006101208a8c031215620000fb578485fd5b89516200010881620001b2565b60208b01519099506200011b81620001b2565b60408b01519098506200012e81620001b2565b60608b01519097506200014181620001b2565b60808b01519096506200015481620001b2565b60a08b01519095506200016781620001b2565b60c08b01519094506200017a81620001b2565b60e08b01519093506200018d81620001b2565b6101008b0151909250620001a181620001b2565b809150509295985092959850929598565b6001600160a01b0381168114620001c857600080fd5b50565b60805160601c613824620001ee60003980611fba5280611fde52506138246000f3fe608060405234801561001057600080fd5b50600436106101475760003560e01c80636a385ae9116100c8578063a88830601161008c578063ad5c464811610066578063ad5c4648146102d8578063ca0f937c146102e0578063febb0f7e1461030057610147565b8063a888306014610283578063a959dd8014610298578063ac6091f8146102b857610147565b80636a385ae9146102135780636b2ace87146102335780637ba32d6e1461023b5780637e3e25961461025b5780638da5cb5b1461027b57610147565b80633da04b871161010f5780633da04b87146101bb5780634a69ac50146101c35780634dede3de146101e357806350655d8c146101eb5780635ec54659146101f357610147565b80630a0879031461014c5780631fc8bc5d1461016a57806322984b24146101725780632952dde81461017a5780633009f4141461019b575b600080fd5b610154610308565b604051610161919061320a565b60405180910390f35b610154610317565b610154610326565b61018d610188366004612e7c565b610335565b6040516101619291906135a5565b6101ae6101a9366004612dc4565b610853565b60405161016191906134da565b610154610e3e565b6101d66101d1366004612e7c565b610e4d565b6040516101619190613438565b610154610f8c565b610154610f9b565b610206610201366004612d4e565b610faa565b604051610161919061375c565b610226610221366004612dc4565b6113ab565b6040516101619190613238565b610154611730565b61024e610249366004612dd8565b61173f565b60405161016191906136c7565b61026e610269366004612ed8565b611cc4565b6040516101619190613329565b610154611fb8565b610296610291366004612f0c565b611fdc565b005b6102ab6102a6366004612dc4565b6120d7565b604051610161919061338e565b6102cb6102c6366004612dc4565b612383565b60405161016191906133f8565b6101546124c4565b6102f36102ee366004612d71565b6124d3565b60405161016191906132d4565b6101546126c0565b6002546001600160a01b031681565b6000546001600160a01b031681565b6005546001600160a01b031681565b61033d612ac9565b6060610347612ac9565b60008054906101000a90046001600160a01b03166001600160a01b03166317caf6f16040518163ffffffff1660e01b815260040160206040518083038186803b15801561039357600080fd5b505afa1580156103a7573d6000803e3d6000fd5b505050506040513d601f19601f820116820180604052508101906103cb91906130ef565b8152600080546040805163040f1f6d60e11b815290516001600160a01b039092169163081e3eda91600480820192602092909190829003018186803b15801561041357600080fd5b505afa158015610427573d6000803e3d6000fd5b505050506040513d601f19601f8201168201806040525081019061044b91906130ef565b60208301819052905060608567ffffffffffffffff8111801561046d57600080fd5b506040519080825280602002602001820160405280156104a757816020015b610494612ae3565b81526020019060019003908161048c5790505b50905060005b86811015610843578787828181106104c157fe5b905060200201358282815181106104d457fe5b6020908102919091010151526000805481906001600160a01b0316631526fe278b8b8681811061050057fe5b905060200201356040518263ffffffff1660e01b8152600401610523919061375c565b60806040518083038186803b15801561053b57600080fd5b505afa15801561054f573d6000803e3d6000fd5b505050506040513d601f19601f820116820180604052508101906105739190612e3e565b50509150915060008290508085858151811061058b57fe5b6020026020010151602001906001600160a01b031690816001600160a01b031681525050818585815181106105bc57fe5b602002602001015160400181815250506105de816001600160a01b03166126cf565b8585815181106105ea57fe5b602002602001015160e0018190525061060b816001600160a01b0316612792565b85858151811061061757fe5b60200260200101516101000181905250610639816001600160a01b03166127d9565b85858151811061064557fe5b6020026020010151610120019060ff16908160ff1681525050610670816001600160a01b0316612892565b85858151811061067c57fe5b6020026020010151608001906001600160a01b031690816001600160a01b03168152505060006001600160a01b03168585815181106106b757fe5b6020026020010151608001516001600160a01b0316146108385760018585815181106106df57fe5b60200260200101516060019015159081151581525050806001600160a01b0316630dfe16816040518163ffffffff1660e01b815260040160206040518083038186803b15801561072e57600080fd5b505afa158015610742573d6000803e3d6000fd5b505050506040513d601f19601f820116820180604052508101906107669190612ebc565b85858151811061077257fe5b602002602001015160a001906001600160a01b031690816001600160a01b031681525050806001600160a01b031663d21220a76040518163ffffffff1660e01b815260040160206040518083038186803b1580156107cf57600080fd5b505afa1580156107e3573d6000803e3d6000fd5b505050506040513d601f19601f820116820180604052508101906108079190612ebc565b85858151811061081357fe5b602002602001015160c001906001600160a01b031690816001600160a01b0316815250505b5050506001016104ad565b50919350909150505b9250929050565b6060808267ffffffffffffffff8111801561086d57600080fd5b506040519080825280602002602001820160405280156108a757816020015b610894612b36565b81526020019060019003908161088c5790505b50905060005b83811015610e3557600080546001600160a01b03166393f1a40b8787858181106108d357fe5b90506020020135896040518363ffffffff1660e01b81526004016108f8929190613765565b604080518083038186803b15801561090f57600080fd5b505afa158015610923573d6000803e3d6000fd5b505050506040513d601f19601f820116820180604052508101906109479190613107565b5090508083838151811061095757fe5b60209081029190910181015101526000546001600160a01b031663195426ec87878581811061098257fe5b90506020020135896040518363ffffffff1660e01b81526004016109a7929190613765565b60206040518083038186803b1580156109bf57600080fd5b505afa1580156109d3573d6000803e3d6000fd5b505050506040513d601f19601f820116820180604052508101906109f791906130ef565b838381518110610a0357fe5b60209081029190910101516101200152600080546001600160a01b0316631526fe27888886818110610a3157fe5b905060200201356040518263ffffffff1660e01b8152600401610a54919061375c565b60806040518083038186803b158015610a6c57600080fd5b505afa158015610a80573d6000803e3d6000fd5b505050506040513d601f19601f82011682018060405250810190610aa49190612e3e565b5050509050868684818110610ab557fe5b90506020020135848481518110610ac857fe5b602090810291909101015152806000610ae96001600160a01b038316612892565b90506001600160a01b03811615610e25576000546040516370a0823160e01b81526001600160a01b03848116926370a0823192610b2c929091169060040161320a565b60206040518083038186803b158015610b4457600080fd5b505afa158015610b58573d6000803e3d6000fd5b505050506040513d601f19601f82011682018060405250810190610b7c91906130ef565b868681518110610b8857fe5b60209081029190910101516040908101919091526000549051636eb1769f60e11b81526001600160a01b038085169263dd62ed3e92610bcd928f92169060040161321e565b60206040518083038186803b158015610be557600080fd5b505afa158015610bf9573d6000803e3d6000fd5b505050506040513d601f19601f82011682018060405250810190610c1d91906130ef565b868681518110610c2957fe5b602090810291909101015160a001526040516370a0823160e01b81526001600160a01b038316906370a0823190610c64908d9060040161320a565b60206040518083038186803b158015610c7c57600080fd5b505afa158015610c90573d6000803e3d6000fd5b505050506040513d601f19601f82011682018060405250810190610cb491906130ef565b868681518110610cc057fe5b60200260200101516060018181525050816001600160a01b03166318160ddd6040518163ffffffff1660e01b815260040160206040518083038186803b158015610d0957600080fd5b505afa158015610d1d573d6000803e3d6000fd5b505050506040513d601f19601f82011682018060405250810190610d4191906130ef565b868681518110610d4d57fe5b60200260200101516080018181525050600080836001600160a01b0316630902f1ac6040518163ffffffff1660e01b815260040160606040518083038186803b158015610d9957600080fd5b505afa158015610dad573d6000803e3d6000fd5b505050506040513d601f19601f82011682018060405250810190610dd19190613062565b5091509150816001600160701b0316888881518110610dec57fe5b602002602001015160c0018181525050806001600160701b0316888881518110610e1257fe5b602002602001015160e001818152505050505b5050600190920191506108ad9050565b50949350505050565b6006546001600160a01b031681565b6060808267ffffffffffffffff81118015610e6757600080fd5b50604051908082528060200260200182016040528015610ea157816020015b610e8e612b89565b815260200190600190039081610e865790505b50905060005b83811015610f84576000858583818110610ebd57fe5b9050602002016020810190610ed29190612d4e565b905080838381518110610ee157fe5b60209081029190910101516001600160a01b039182169052610f049082166126cf565b838381518110610f1057fe5b602002602001015160400181905250610f31816001600160a01b0316612792565b838381518110610f3d57fe5b602002602001015160600181905250610f5e816001600160a01b03166127d9565b60ff16838381518110610f6d57fe5b602090810291909101810151015250600101610ea7565b509392505050565b6004546001600160a01b031681565b6001546001600160a01b031681565b6003546000906001600160a01b0383811691161415610fd25750670de0b6b3a76400006113a6565b60065460035460405163e6a4390560e01b81526000926001600160a01b039081169263e6a439059261100a928892169060040161321e565b60206040518083038186803b15801561102257600080fd5b505afa158015611036573d6000803e3d6000fd5b505050506040513d601f19601f8201168201806040525081019061105a9190612ebc565b60055460035460405163e6a4390560e01b81529293506000926001600160a01b039283169263e6a43905926110979289929091169060040161321e565b60206040518083038186803b1580156110af57600080fd5b505afa1580156110c3573d6000803e3d6000fd5b505050506040513d601f19601f820116820180604052508101906110e79190612ebc565b90506001600160a01b03821615801561110757506001600160a01b038116155b15611117576000925050506113a6565b600080806001600160a01b0385161561122357600080866001600160a01b0316630902f1ac6040518163ffffffff1660e01b815260040160606040518083038186803b15801561116657600080fd5b505afa15801561117a573d6000803e3d6000fd5b505050506040513d601f19601f8201168201806040525081019061119e9190613062565b509150915081850194508084019350866001600160a01b0316630dfe16816040518163ffffffff1660e01b815260040160206040518083038186803b1580156111e657600080fd5b505afa1580156111fa573d6000803e3d6000fd5b505050506040513d601f19601f8201168201806040525081019061121e9190612ebc565b925050505b6001600160a01b0384161561133957600080856001600160a01b0316630902f1ac6040518163ffffffff1660e01b815260040160606040518083038186803b15801561126e57600080fd5b505afa158015611282573d6000803e3d6000fd5b505050506040513d601f19601f820116820180604052508101906112a69190613062565b50958101959485019490925090506001600160a01b03831661133657856001600160a01b0316630dfe16816040518163ffffffff1660e01b815260040160206040518083038186803b1580156112fb57600080fd5b505afa15801561130f573d6000803e3d6000fd5b505050506040513d601f19601f820116820180604052508101906113339190612ebc565b92505b50505b6003546001600160a01b038281169116141561138157826001600160701b0316826001600160701b0316670de0b6b3a7640000028161137457fe5b04955050505050506113a6565b816001600160701b0316836001600160701b0316670de0b6b3a7640000028161137457fe5b919050565b6060808267ffffffffffffffff811180156113c557600080fd5b506040519080825280602002602001820160405280156113ff57816020015b6113ec612bba565b8152602001906001900390816113e45790505b50905060005b83811015610e3557600085858381811061141b57fe5b90506020020160208101906114309190612d4e565b90508083838151811061143f57fe5b60209081029190910101516001600160a01b0391821690526040516370a0823160e01b8152908216906370a082319061147c908a9060040161320a565b60206040518083038186803b15801561149457600080fd5b505afa1580156114a8573d6000803e3d6000fd5b505050506040513d601f19601f820116820180604052508101906114cc91906130ef565b8383815181106114d857fe5b6020908102919091018101510152600854604051636eb1769f60e11b81526001600160a01b038084169263dd62ed3e92611518928c92169060040161321e565b60206040518083038186803b15801561153057600080fd5b505afa158015611544573d6000803e3d6000fd5b505050506040513d601f19601f8201168201806040525081019061156891906130ef565b83838151811061157457fe5b602090810291909101015160600152600854604051633de222bb60e21b81526001600160a01b039091169063f7888aec906115b59084908b9060040161321e565b60206040518083038186803b1580156115cd57600080fd5b505afa1580156115e1573d6000803e3d6000fd5b505050506040513d601f19601f8201168201806040525081019061160591906130ef565b83838151811061161157fe5b6020026020010151604001818152505082828151811061162d57fe5b60200260200101516040015160001461170357600854604051634ffe34db60e01b81526001600160a01b0390911690634ffe34db9061167090849060040161320a565b604080518083038186803b15801561168757600080fd5b505afa15801561169b573d6000803e3d6000fd5b505050506040513d601f19601f820116820180604052508101906116bf91906130b6565b8484815181106116cb57fe5b60200260200101516080018585815181106116e257fe5b60209081029190910101516001600160801b0392831660a090910152911690525b61170c81610faa565b83838151811061171857fe5b602090810291909101015160c0015250600101611405565b6008546001600160a01b031681565b611747612c12565b61174f612c12565b6001600160a01b0386163181528367ffffffffffffffff8111801561177357600080fd5b506040519080825280602002602001820160405280156117ad57816020015b61179a612c6c565b8152602001906001900390816117925790505b5060c082015260005b848110156118b05760008686838181106117cc57fe5b90506020020160208101906117e19190612d4e565b9050808360c0015183815181106117f457fe5b6020026020010151600001906001600160a01b031690816001600160a01b031681525050806001600160a01b031663574f2ba36040518163ffffffff1660e01b815260040160206040518083038186803b15801561185157600080fd5b505afa158015611865573d6000803e3d6000fd5b505050506040513d601f19601f8201168201806040525081019061188991906130ef565b8360c00151838151811061189957fe5b6020908102919091018101510152506001016117b6565b506118ba83610faa565b60e08201526002546118d4906001600160a01b0316610faa565b6101008201526004546118ef906001600160a01b0316610faa565b6101208201526002546040516370a0823160e01b81526001600160a01b03909116906370a082319061192590899060040161320a565b60206040518083038186803b15801561193d57600080fd5b505afa158015611951573d6000803e3d6000fd5b505050506040513d601f19601f8201168201806040525081019061197591906130ef565b60208201526002546007546040516370a0823160e01b81526001600160a01b03928316926370a08231926119ae9291169060040161320a565b60206040518083038186803b1580156119c657600080fd5b505afa1580156119da573d6000803e3d6000fd5b505050506040513d601f19601f820116820180604052508101906119fe91906130ef565b60408083019190915260075490516370a0823160e01b81526001600160a01b03909116906370a0823190611a3690899060040161320a565b60206040518083038186803b158015611a4e57600080fd5b505afa158015611a62573d6000803e3d6000fd5b505050506040513d601f19601f82011682018060405250810190611a8691906130ef565b6060820152600754604080516318160ddd60e01b815290516001600160a01b03909216916318160ddd91600480820192602092909190829003018186803b158015611ad057600080fd5b505afa158015611ae4573d6000803e3d6000fd5b505050506040513d601f19601f82011682018060405250810190611b0891906130ef565b6080820152600254600754604051636eb1769f60e11b81526001600160a01b039283169263dd62ed3e92611b44928b929091169060040161321e565b60206040518083038186803b158015611b5c57600080fd5b505afa158015611b70573d6000803e3d6000fd5b505050506040513d601f19601f82011682018060405250810190611b9491906130ef565b60a0820152600080546040805163040f1f6d60e11b815290516001600160a01b039092169163081e3eda91600480820192602092909190829003018186803b158015611bdf57600080fd5b505afa158015611bf3573d6000803e3d6000fd5b505050506040513d601f19601f82011682018060405250810190611c1791906130ef565b90506000805b82811015611cb35760005460405163065509bb60e21b81526001600160a01b039091169063195426ec90611c579084908d90600401613765565b60206040518083038186803b158015611c6f57600080fd5b505afa158015611c83573d6000803e3d6000fd5b505050506040513d601f19601f82011682018060405250810190611ca791906130ef565b90910190600101611c1d565b506101408301525095945050505050565b60608083830367ffffffffffffffff81118015611ce057600080fd5b50604051908082528060200260200182016040528015611d1a57816020015b611d07612c83565b815260200190600190039081611cff5790505b509050835b83811015610e3557604051631e3dd18b60e01b81526000906001600160a01b03881690631e3dd18b90611d5690859060040161375c565b60206040518083038186803b158015611d6e57600080fd5b505afa158015611d82573d6000803e3d6000fd5b505050506040513d601f19601f82011682018060405250810190611da69190612ebc565b90506000868303905081848281518110611dbc57fe5b6020026020010151600001906001600160a01b031690816001600160a01b031681525050816001600160a01b0316630dfe16816040518163ffffffff1660e01b815260040160206040518083038186803b158015611e1957600080fd5b505afa158015611e2d573d6000803e3d6000fd5b505050506040513d601f19601f82011682018060405250810190611e519190612ebc565b848281518110611e5d57fe5b6020026020010151602001906001600160a01b031690816001600160a01b031681525050816001600160a01b031663d21220a76040518163ffffffff1660e01b815260040160206040518083038186803b158015611eba57600080fd5b505afa158015611ece573d6000803e3d6000fd5b505050506040513d601f19601f82011682018060405250810190611ef29190612ebc565b848281518110611efe57fe5b6020026020010151604001906001600160a01b031690816001600160a01b031681525050816001600160a01b03166318160ddd6040518163ffffffff1660e01b815260040160206040518083038186803b158015611f5b57600080fd5b505afa158015611f6f573d6000803e3d6000fd5b505050506040513d601f19601f82011682018060405250810190611f9391906130ef565b848281518110611f9f57fe5b6020908102919091010151606001525050600101611d1f565b7f000000000000000000000000000000000000000000000000000000000000000081565b7f00000000000000000000000000000000000000000000000000000000000000006001600160a01b0316331461202d5760405162461bcd60e51b815260040161202490613570565b60405180910390fd5b6000805473ffffffffffffffffffffffffffffffffffffffff199081166001600160a01b039b8c1617909155600180548216998b1699909917909855600280548916978a16979097179096556003805488169589169590951790945560048054871693881693909317909255600580548616918716919091179055600680548516918616919091179055600780548416918516919091179055600880549092169216919091179055565b6060808267ffffffffffffffff811180156120f157600080fd5b5060405190808252806020026020018201604052801561212b57816020015b612118612caa565b8152602001906001900390816121105790505b50905060005b83811015610e3557600085858381811061214757fe5b905060200201602081019061215c9190612d4e565b90508083838151811061216b57fe5b6020026020010151600001906001600160a01b031690816001600160a01b031681525050600080826001600160a01b0316630902f1ac6040518163ffffffff1660e01b815260040160606040518083038186803b1580156121cb57600080fd5b505afa1580156121df573d6000803e3d6000fd5b505050506040513d601f19601f820116820180604052508101906122039190613062565b506001600160701b031691506001600160701b031691508185858151811061222757fe5b602002602001015160200181815250508085858151811061224457fe5b60200260200101516040018181525050826001600160a01b03166370a082318a6040518263ffffffff1660e01b8152600401612280919061320a565b60206040518083038186803b15801561229857600080fd5b505afa1580156122ac573d6000803e3d6000fd5b505050506040513d601f19601f820116820180604052508101906122d091906130ef565b8585815181106122dc57fe5b60200260200101516080018181525050826001600160a01b03166318160ddd6040518163ffffffff1660e01b815260040160206040518083038186803b15801561232557600080fd5b505afa158015612339573d6000803e3d6000fd5b505050506040513d601f19601f8201168201806040525081019061235d91906130ef565b85858151811061236957fe5b602090810291909101015160600152505050600101612131565b6060808267ffffffffffffffff8111801561239d57600080fd5b506040519080825280602002602001820160405280156123d757816020015b6123c4612ac9565b8152602001906001900390816123bc5790505b50905060005b83811015610e35578484828181106123f157fe5b9050602002013582828151811061240457fe5b6020908102919091010151526000546001600160a01b03166393f1a40b86868481811061242d57fe5b90506020020135886040518363ffffffff1660e01b8152600401612452929190613765565b604080518083038186803b15801561246957600080fd5b505afa15801561247d573d6000803e3d6000fd5b505050506040513d601f19601f820116820180604052508101906124a19190613107565b508282815181106124ae57fe5b60209081029190910181015101526001016123dd565b6003546001600160a01b031681565b6060808267ffffffffffffffff811180156124ed57600080fd5b5060405190808252806020026020018201604052801561252757816020015b612514612ce2565b81526020019060019003908161250c5790505b5090508260005b818110156126b557600086868381811061254457fe5b90506020020160208101906125599190612d4e565b90508084838151811061256857fe5b60209081029190910101516001600160a01b0391821690526040516370a0823160e01b8152908216906370a08231906125a5908b9060040161320a565b60206040518083038186803b1580156125bd57600080fd5b505afa1580156125d1573d6000803e3d6000fd5b505050506040513d601f19601f820116820180604052508101906125f591906130ef565b84838151811061260157fe5b6020908102919091018101510152600854604051633de222bb60e21b81526001600160a01b039091169063f7888aec906126419084908c9060040161321e565b60206040518083038186803b15801561265957600080fd5b505afa15801561266d573d6000803e3d6000fd5b505050506040513d601f19601f8201168201806040525081019061269191906130ef565b84838151811061269d57fe5b6020908102919091010151604001525060010161252e565b509095945050505050565b6007546001600160a01b031681565b60408051600481526024810182526020810180516001600160e01b03166306fdde0360e01b179052905160609160009183916001600160a01b0386169161271691906131ee565b600060405180830381855afa9150503d8060008114612751576040519150601f19603f3d011682016040523d82523d6000602084013e612756565b606091505b50915091508161278157604051806040016040528060038152602001623f3f3f60e81b81525061278a565b61278a8161294b565b949350505050565b60408051600481526024810182526020810180516001600160e01b03166395d89b4160e01b179052905160609160009183916001600160a01b0386169161271691906131ee565b60408051600481526024810182526020810180516001600160e01b031663313ce56760e01b179052905160009182916060916001600160a01b0386169161282091906131ee565b600060405180830381855afa9150503d806000811461285b576040519150601f19603f3d011682016040523d82523d6000602084013e612860565b606091505b5091509150818015612873575080516020145b61287e57601261278a565b8080602001905181019061278a919061312a565b60408051600481526024810182526020810180516001600160e01b031663c45a015560e01b179052905160009182916060916001600160a01b038616916128d991906131ee565b600060405180830381855afa9150503d8060008114612914576040519150601f19603f3d011682016040523d82523d6000602084013e612919565b606091505b509150915081801561292c575080516020145b61293757600061278a565b8080602001905181019061278a9190612ebc565b60606040825110612971578180602001905181019061296a9190612fc7565b90506113a6565b815160201415612aa95760005b60208160ff161080156129ad5750828160ff168151811061299b57fe5b01602001516001600160f81b03191615155b156129ba5760010161297e565b60608160ff1667ffffffffffffffff811180156129d657600080fd5b506040519080825280601f01601f191660200182016040528015612a01576020820181803683370190505b509050600091505b60208260ff16108015612a385750838260ff1681518110612a2657fe5b01602001516001600160f81b03191615155b15612aa057838260ff1681518110612a4c57fe5b602001015160f81c60f81b818360ff1681518110612a6657fe5b60200101907effffffffffffffffffffffffffffffffffffffffffffffffffffffffffffff1916908160001a905350600190910190612a09565b91506113a69050565b506040805180820190915260038152623f3f3f60e81b60208201526113a6565b604051806040016040528060008152602001600081525090565b604080516101408101825260008082526020820181905291810182905260608082018390526080820183905260a0820183905260c0820183905260e0820181905261010082015261012081019190915290565b604051806101400160405280600081526020016000815260200160008152602001600081526020016000815260200160008152602001600081526020016000815260200160008152602001600081525090565b604051806080016040528060006001600160a01b031681526020016000815260200160608152602001606081525090565b6040518060e0016040528060006001600160a01b0316815260200160008152602001600081526020016000815260200160006001600160801b0316815260200160006001600160801b03168152602001600081525090565b60405180610160016040528060008152602001600081526020016000815260200160008152602001600081526020016000815260200160608152602001600081526020016000815260200160008152602001600081525090565b604080518082019091526000808252602082015290565b60408051608081018252600080825260208201819052918101829052606081019190915290565b6040518060a0016040528060006001600160a01b03168152602001600081526020016000815260200160008152602001600081525090565b604051806060016040528060006001600160a01b0316815260200160008152602001600081525090565b60008083601f840112612d1d578182fd5b50813567ffffffffffffffff811115612d34578182fd5b602083019150836020808302850101111561084c57600080fd5b600060208284031215612d5f578081fd5b8135612d6a816137ac565b9392505050565b600080600060408486031215612d85578182fd5b8335612d90816137ac565b9250602084013567ffffffffffffffff811115612dab578283fd5b612db786828701612d0c565b9497909650939450505050565b600080600060408486031215612d85578283fd5b60008060008060608587031215612ded578081fd5b8435612df8816137ac565b9350602085013567ffffffffffffffff811115612e13578182fd5b612e1f87828801612d0c565b9094509250506040850135612e33816137ac565b939692955090935050565b60008060008060808587031215612e53578182fd5b8451612e5e816137ac565b60208601516040870151606090970151919890975090945092505050565b60008060208385031215612e8e578182fd5b823567ffffffffffffffff811115612ea4578283fd5b612eb085828601612d0c565b90969095509350505050565b600060208284031215612ecd578081fd5b8151612d6a816137ac565b600080600060608486031215612eec578081fd5b8335612ef7816137ac565b95602085013595506040909401359392505050565b60008060008060008060008060006101208a8c031215612f2a578687fd5b8935612f35816137ac565b985060208a0135612f45816137ac565b975060408a0135612f55816137ac565b965060608a0135612f65816137ac565b955060808a0135612f75816137ac565b945060a08a0135612f85816137ac565b935060c08a0135612f95816137ac565b925060e08a0135612fa5816137ac565b91506101008a0135612fb6816137ac565b809150509295985092959850929598565b600060208284031215612fd8578081fd5b815167ffffffffffffffff80821115612fef578283fd5b818401915084601f830112613002578283fd5b815181811115613010578384fd5b604051601f8201601f191681016020018381118282101715613030578586fd5b604052818152838201602001871015613047578485fd5b61305882602083016020870161377c565b9695505050505050565b600080600060608486031215613076578081fd5b8351613081816137c4565b6020850151909350613092816137c4565b604085015190925063ffffffff811681146130ab578182fd5b809150509250925092565b600080604083850312156130c8578182fd5b82516130d3816137d9565b60208401519092506130e4816137d9565b809150509250929050565b600060208284031215613100578081fd5b5051919050565b60008060408385031215613119578182fd5b505080516020909101519092909150565b60006020828403121561313b578081fd5b815160ff81168114612d6a578182fd5b6000815180845260208085019450808401835b8381101561318e57815180516001600160a01b03168852830151838801526040909601959082019060010161315e565b509495945050505050565b15159052565b6001600160a01b03169052565b600081518084526131c481602086016020860161377c565b601f01601f19169290920160200192915050565b80518252602090810151910152565b60ff169052565b6000825161320081846020870161377c565b9190910192915050565b6001600160a01b0391909116815260200190565b6001600160a01b0392831681529116602082015260400190565b602080825282518282018190526000919060409081850190868401855b828110156132c757815180516001600160a01b0316855286810151878601528581015186860152606080820151908601526080808201516001600160801b039081169187019190915260a0808301519091169086015260c0908101519085015260e09093019290850190600101613255565b5091979650505050505050565b602080825282518282018190526000919060409081850190868401855b828110156132c757815180516001600160a01b03168552868101518786015285015185850152606090930192908501906001016132f1565b602080825282518282018190526000919060409081850190868401855b828110156132c757815180516001600160a01b039081168652878201518116888701528682015116868601526060908101519085015260809093019290850190600101613346565b602080825282518282018190526000919060409081850190868401855b828110156132c757815180516001600160a01b0316855286810151878601528581015186860152606080820151908601526080908101519085015260a090930192908501906001016133ab565b602080825282518282018190526000919060409081850190868401855b828110156132c7576134288483516131d8565b9284019290850190600101613415565b60208082528251828201819052600091906040908185019080840286018301878501865b838110156134cc57603f19898403018552815160806001600160a01b038251168552888201518986015287820151818987015261349b828701826131ac565b915050606080830151925085820381870152506134b881836131ac565b96890196945050509086019060010161345c565b509098975050505050505050565b602080825282518282018190526000919060409081850190868401855b828110156132c75781518051855286810151878601528581015186860152606080820151908601526080808201519086015260a0808201519086015260c0808201519086015260e080820151908601526101008082015190860152610120908101519085015261014090930192908501906001016134f7565b6020808252818101527f4f776e61626c653a2063616c6c6572206973206e6f7420746865206f776e6572604082015260600190565b600060608083016135b684876131d8565b604084810183905285519182905260809182860190602080820288018501818a01885b848110156136b657607f198b8403018652815161014081518552858201516136038787018261319f565b5088820151898601528a82015161361c8c870182613199565b508982015161362d8b87018261319f565b5060a0808301516136408288018261319f565b505060c0808301516136548288018261319f565b505060e080830151828288015261366d838801826131ac565b92505050610100808301518683038288015261368983826131ac565b925050506101208083015192506136a2818701846131e7565b5096850196935050908301906001016135d9565b50909b9a5050505050505050505050565b60006020825282516020830152602083015160408301526040830151606083015260608301516080830152608083015160a083015260a083015160c083015260c08301516101608060e085015261372261018085018361314b565b60e0860151610100868101919091528601516101208087019190915286015161014080870191909152909501519301929092525090919050565b90815260200190565b9182526001600160a01b0316602082015260400190565b60005b8381101561379757818101518382015260200161377f565b838111156137a6576000848401525b50505050565b6001600160a01b03811681146137c157600080fd5b50565b6001600160701b03811681146137c157600080fd5b6001600160801b03811681146137c157600080fdfea2646970667358221220c5c5e77fde4849f735da31ffad66750fc4f4c2b0afc41b89e631cdc2186a9fc764736f6c634300060c0033",
  "devdoc": {
    "kind": "dev",
    "methods": {},
    "version": 1
  },
  "userdoc": {
    "kind": "user",
    "methods": {},
    "version": 1
  },
  "storageLayout": {
    "storage": [
      {
        "astId": 948,
        "contract": "contracts/BoringHelper.sol:BoringHelper",
        "label": "chef",
        "offset": 0,
        "slot": "0",
        "type": "t_contract(IMasterChef)138"
      },
      {
        "astId": 950,
        "contract": "contracts/BoringHelper.sol:BoringHelper",
        "label": "maker",
        "offset": 0,
        "slot": "1",
        "type": "t_address"
      },
      {
        "astId": 952,
        "contract": "contracts/BoringHelper.sol:BoringHelper",
        "label": "sushi",
        "offset": 0,
        "slot": "2",
        "type": "t_contract(IERC20)54"
      },
      {
        "astId": 954,
        "contract": "contracts/BoringHelper.sol:BoringHelper",
        "label": "WETH",
        "offset": 0,
        "slot": "3",
        "type": "t_contract(IERC20)54"
      },
      {
        "astId": 956,
        "contract": "contracts/BoringHelper.sol:BoringHelper",
        "label": "WBTC",
        "offset": 0,
        "slot": "4",
        "type": "t_contract(IERC20)54"
      },
      {
        "astId": 958,
        "contract": "contracts/BoringHelper.sol:BoringHelper",
        "label": "sushiFactory",
        "offset": 0,
        "slot": "5",
        "type": "t_contract(IFactory)192"
      },
      {
        "astId": 960,
        "contract": "contracts/BoringHelper.sol:BoringHelper",
        "label": "uniV2Factory",
        "offset": 0,
        "slot": "6",
        "type": "t_contract(IFactory)192"
      },
      {
        "astId": 962,
        "contract": "contracts/BoringHelper.sol:BoringHelper",
        "label": "bar",
        "offset": 0,
        "slot": "7",
        "type": "t_contract(IERC20)54"
      },
      {
        "astId": 964,
        "contract": "contracts/BoringHelper.sol:BoringHelper",
        "label": "bentoBox",
        "offset": 0,
        "slot": "8",
        "type": "t_contract(IBentoBox)932"
      }
    ],
    "types": {
      "t_address": {
        "encoding": "inplace",
        "label": "address",
        "numberOfBytes": "20"
      },
      "t_contract(IBentoBox)932": {
        "encoding": "inplace",
        "label": "contract IBentoBox",
        "numberOfBytes": "20"
      },
      "t_contract(IERC20)54": {
        "encoding": "inplace",
        "label": "contract IERC20",
        "numberOfBytes": "20"
      },
      "t_contract(IFactory)192": {
        "encoding": "inplace",
        "label": "contract IFactory",
        "numberOfBytes": "20"
      },
      "t_contract(IMasterChef)138": {
        "encoding": "inplace",
        "label": "contract IMasterChef",
        "numberOfBytes": "20"
      }
    }
  }
}