{
  "address": "0x3Aa5ebB10DC797CAC828524e59A333d0A371443c",
  "abi": [
    {
      "inputs": [
        {
          "internalType": "contract IMasterChef",
          "name": "chef_",
          "type": "address"
        },
        {
          "internalType": "address",
          "name": "maker_",
          "type": "address"
        },
        {
          "internalType": "contract IERC20",
          "name": "sushi_",
          "type": "address"
        },
        {
          "internalType": "contract IERC20",
          "name": "WETH_",
          "type": "address"
        },
        {
          "internalType": "contract IERC20",
          "name": "WBTC_",
          "type": "address"
        },
        {
          "internalType": "contract IFactory",
          "name": "sushiFactory_",
          "type": "address"
        },
        {
          "internalType": "contract IFactory",
          "name": "uniV2Factory_",
          "type": "address"
        },
        {
          "internalType": "contract IERC20",
          "name": "bar_",
          "type": "address"
        },
        {
          "internalType": "contract IBentoBox",
          "name": "bentoBox_",
          "type": "address"
        }
      ],
      "stateMutability": "nonpayable",
      "type": "constructor"
    },
    {
      "inputs": [],
      "name": "WBTC",
      "outputs": [
        {
          "internalType": "contract IERC20",
          "name": "",
          "type": "address"
        }
      ],
      "stateMutability": "view",
      "type": "function"
    },
    {
      "inputs": [],
      "name": "WETH",
      "outputs": [
        {
          "internalType": "contract IERC20",
          "name": "",
          "type": "address"
        }
      ],
      "stateMutability": "view",
      "type": "function"
    },
    {
      "inputs": [],
      "name": "bar",
      "outputs": [
        {
          "internalType": "contract IERC20",
          "name": "",
          "type": "address"
        }
      ],
      "stateMutability": "view",
      "type": "function"
    },
    {
      "inputs": [],
      "name": "bentoBox",
      "outputs": [
        {
          "internalType": "contract IBentoBox",
          "name": "",
          "type": "address"
        }
      ],
      "stateMutability": "view",
      "type": "function"
    },
    {
      "inputs": [],
      "name": "chef",
      "outputs": [
        {
          "internalType": "contract IMasterChef",
          "name": "",
          "type": "address"
        }
      ],
      "stateMutability": "view",
      "type": "function"
    },
    {
      "inputs": [
        {
          "internalType": "address",
          "name": "who",
          "type": "address"
        },
        {
          "internalType": "address[]",
          "name": "addresses",
          "type": "address[]"
        }
      ],
      "name": "findBalances",
      "outputs": [
        {
          "components": [
            {
              "internalType": "contract IERC20",
              "name": "token",
              "type": "address"
            },
            {
              "internalType": "uint256",
              "name": "balance",
              "type": "uint256"
            },
            {
              "internalType": "uint256",
              "name": "bentoBalance",
              "type": "uint256"
            }
          ],
          "internalType": "struct BoringHelper.Balance[]",
          "name": "",
          "type": "tuple[]"
        }
      ],
      "stateMutability": "view",
      "type": "function"
    },
    {
      "inputs": [
        {
          "internalType": "address",
          "name": "who",
          "type": "address"
        },
        {
          "internalType": "uint256[]",
          "name": "pids",
          "type": "uint256[]"
        }
      ],
      "name": "findPools",
      "outputs": [
        {
          "components": [
            {
              "internalType": "uint256",
              "name": "pid",
              "type": "uint256"
            },
            {
              "internalType": "uint256",
              "name": "balance",
              "type": "uint256"
            }
          ],
          "internalType": "struct BoringHelper.PoolFound[]",
          "name": "",
          "type": "tuple[]"
        }
      ],
      "stateMutability": "view",
      "type": "function"
    },
    {
      "inputs": [
        {
          "internalType": "address",
          "name": "who",
          "type": "address"
        },
        {
          "internalType": "contract IERC20[]",
          "name": "addresses",
          "type": "address[]"
        }
      ],
      "name": "getBalances",
      "outputs": [
        {
          "components": [
            {
              "internalType": "contract IERC20",
              "name": "token",
              "type": "address"
            },
            {
              "internalType": "uint256",
              "name": "balance",
              "type": "uint256"
            },
            {
              "internalType": "uint256",
              "name": "bentoBalance",
              "type": "uint256"
            },
            {
              "internalType": "uint256",
              "name": "bentoAllowance",
              "type": "uint256"
            },
            {
              "internalType": "uint128",
              "name": "bentoAmount",
              "type": "uint128"
            },
            {
              "internalType": "uint128",
              "name": "bentoShare",
              "type": "uint128"
            },
            {
              "internalType": "uint256",
              "name": "rate",
              "type": "uint256"
            }
          ],
          "internalType": "struct BoringHelper.BalanceFull[]",
          "name": "",
          "type": "tuple[]"
        }
      ],
      "stateMutability": "view",
      "type": "function"
    },
    {
      "inputs": [
        {
          "internalType": "contract IERC20",
          "name": "token",
          "type": "address"
        }
      ],
      "name": "getETHRate",
      "outputs": [
        {
          "internalType": "uint256",
          "name": "",
          "type": "uint256"
        }
      ],
      "stateMutability": "view",
      "type": "function"
    },
    {
      "inputs": [
        {
          "internalType": "contract IFactory",
          "name": "factory",
          "type": "address"
        },
        {
          "internalType": "uint256",
          "name": "fromID",
          "type": "uint256"
        },
        {
          "internalType": "uint256",
          "name": "toID",
          "type": "uint256"
        }
      ],
      "name": "getPairs",
      "outputs": [
        {
          "components": [
            {
              "internalType": "contract IPair",
              "name": "token",
              "type": "address"
            },
            {
              "internalType": "contract IERC20",
              "name": "token0",
              "type": "address"
            },
            {
              "internalType": "contract IERC20",
              "name": "token1",
              "type": "address"
            },
            {
              "internalType": "uint256",
              "name": "totalSupply",
              "type": "uint256"
            }
          ],
          "internalType": "struct BoringHelper.PairBase[]",
          "name": "",
          "type": "tuple[]"
        }
      ],
      "stateMutability": "view",
      "type": "function"
    },
    {
      "inputs": [
        {
          "internalType": "uint256[]",
          "name": "pids",
          "type": "uint256[]"
        }
      ],
      "name": "getPools",
      "outputs": [
        {
          "components": [
            {
              "internalType": "uint256",
              "name": "totalAllocPoint",
              "type": "uint256"
            },
            {
              "internalType": "uint256",
              "name": "poolLength",
              "type": "uint256"
            }
          ],
          "internalType": "struct BoringHelper.PoolsInfo",
          "name": "",
          "type": "tuple"
        },
        {
          "components": [
            {
              "internalType": "uint256",
              "name": "pid",
              "type": "uint256"
            },
            {
              "internalType": "contract IPair",
              "name": "lpToken",
              "type": "address"
            },
            {
              "internalType": "uint256",
              "name": "allocPoint",
              "type": "uint256"
            },
            {
              "internalType": "bool",
              "name": "isPair",
              "type": "bool"
            },
            {
              "internalType": "contract IFactory",
              "name": "factory",
              "type": "address"
            },
            {
              "internalType": "contract IERC20",
              "name": "token0",
              "type": "address"
            },
            {
              "internalType": "contract IERC20",
              "name": "token1",
              "type": "address"
            },
            {
              "internalType": "string",
              "name": "name",
              "type": "string"
            },
            {
              "internalType": "string",
              "name": "symbol",
              "type": "string"
            },
            {
              "internalType": "uint8",
              "name": "decimals",
              "type": "uint8"
            }
          ],
          "internalType": "struct BoringHelper.PoolInfo[]",
          "name": "",
          "type": "tuple[]"
        }
      ],
      "stateMutability": "view",
      "type": "function"
    },
    {
      "inputs": [
        {
          "internalType": "address[]",
          "name": "addresses",
          "type": "address[]"
        }
      ],
      "name": "getTokenInfo",
      "outputs": [
        {
          "components": [
            {
              "internalType": "contract IERC20",
              "name": "token",
              "type": "address"
            },
            {
              "internalType": "uint256",
              "name": "decimals",
              "type": "uint256"
            },
            {
              "internalType": "string",
              "name": "name",
              "type": "string"
            },
            {
              "internalType": "string",
              "name": "symbol",
              "type": "string"
            }
          ],
          "internalType": "struct BoringHelper.TokenInfo[]",
          "name": "",
          "type": "tuple[]"
        }
      ],
      "stateMutability": "view",
      "type": "function"
    },
    {
      "inputs": [
        {
          "internalType": "address",
          "name": "who",
          "type": "address"
        },
        {
          "internalType": "contract IFactory[]",
          "name": "factoryAddresses",
          "type": "address[]"
        },
        {
          "internalType": "contract IERC20",
          "name": "currency",
          "type": "address"
        }
      ],
      "name": "getUIInfo",
      "outputs": [
        {
          "components": [
            {
              "internalType": "uint256",
              "name": "ethBalance",
              "type": "uint256"
            },
            {
              "internalType": "uint256",
              "name": "sushiBalance",
              "type": "uint256"
            },
            {
              "internalType": "uint256",
              "name": "sushiBarBalance",
              "type": "uint256"
            },
            {
              "internalType": "uint256",
              "name": "xsushiBalance",
              "type": "uint256"
            },
            {
              "internalType": "uint256",
              "name": "xsushiSupply",
              "type": "uint256"
            },
            {
              "internalType": "uint256",
              "name": "sushiBarAllowance",
              "type": "uint256"
            },
            {
              "components": [
                {
                  "internalType": "contract IFactory",
                  "name": "factory",
                  "type": "address"
                },
                {
                  "internalType": "uint256",
                  "name": "allPairsLength",
                  "type": "uint256"
                }
              ],
              "internalType": "struct BoringHelper.Factory[]",
              "name": "factories",
              "type": "tuple[]"
            },
            {
              "internalType": "uint256",
              "name": "ethRate",
              "type": "uint256"
            },
            {
              "internalType": "uint256",
              "name": "sushiRate",
              "type": "uint256"
            },
            {
              "internalType": "uint256",
              "name": "btcRate",
              "type": "uint256"
            },
            {
              "internalType": "uint256",
              "name": "pendingSushi",
              "type": "uint256"
            }
          ],
          "internalType": "struct BoringHelper.UIInfo",
          "name": "",
          "type": "tuple"
        }
      ],
      "stateMutability": "view",
      "type": "function"
    },
    {
      "inputs": [],
      "name": "maker",
      "outputs": [
        {
          "internalType": "address",
          "name": "",
          "type": "address"
        }
      ],
      "stateMutability": "view",
      "type": "function"
    },
    {
      "inputs": [],
      "name": "owner",
      "outputs": [
        {
          "internalType": "address",
          "name": "",
          "type": "address"
        }
      ],
      "stateMutability": "view",
      "type": "function"
    },
    {
      "inputs": [
        {
          "internalType": "address",
          "name": "who",
          "type": "address"
        },
        {
          "internalType": "contract IPair[]",
          "name": "addresses",
          "type": "address[]"
        }
      ],
      "name": "pollPairs",
      "outputs": [
        {
          "components": [
            {
              "internalType": "contract IPair",
              "name": "token",
              "type": "address"
            },
            {
              "internalType": "uint256",
              "name": "reserve0",
              "type": "uint256"
            },
            {
              "internalType": "uint256",
              "name": "reserve1",
              "type": "uint256"
            },
            {
              "internalType": "uint256",
              "name": "totalSupply",
              "type": "uint256"
            },
            {
              "internalType": "uint256",
              "name": "balance",
              "type": "uint256"
            }
          ],
          "internalType": "struct BoringHelper.PairPoll[]",
          "name": "",
          "type": "tuple[]"
        }
      ],
      "stateMutability": "view",
      "type": "function"
    },
    {
      "inputs": [
        {
          "internalType": "address",
          "name": "who",
          "type": "address"
        },
        {
          "internalType": "uint256[]",
          "name": "pids",
          "type": "uint256[]"
        }
      ],
      "name": "pollPools",
      "outputs": [
        {
          "components": [
            {
              "internalType": "uint256",
              "name": "pid",
              "type": "uint256"
            },
            {
              "internalType": "uint256",
              "name": "balance",
              "type": "uint256"
            },
            {
              "internalType": "uint256",
              "name": "totalSupply",
              "type": "uint256"
            },
            {
              "internalType": "uint256",
              "name": "lpBalance",
              "type": "uint256"
            },
            {
              "internalType": "uint256",
              "name": "lpTotalSupply",
              "type": "uint256"
            },
            {
              "internalType": "uint256",
              "name": "lpAllowance",
              "type": "uint256"
            },
            {
              "internalType": "uint256",
              "name": "reserve0",
              "type": "uint256"
            },
            {
              "internalType": "uint256",
              "name": "reserve1",
              "type": "uint256"
            },
            {
              "internalType": "uint256",
              "name": "rewardDebt",
              "type": "uint256"
            },
            {
              "internalType": "uint256",
              "name": "pending",
              "type": "uint256"
            }
          ],
          "internalType": "struct BoringHelper.UserPoolInfo[]",
          "name": "",
          "type": "tuple[]"
        }
      ],
      "stateMutability": "view",
      "type": "function"
    },
    {
      "inputs": [
        {
          "internalType": "contract IMasterChef",
          "name": "chef_",
          "type": "address"
        },
        {
          "internalType": "address",
          "name": "maker_",
          "type": "address"
        },
        {
          "internalType": "contract IERC20",
          "name": "sushi_",
          "type": "address"
        },
        {
          "internalType": "contract IERC20",
          "name": "WETH_",
          "type": "address"
        },
        {
          "internalType": "contract IERC20",
          "name": "WBTC_",
          "type": "address"
        },
        {
          "internalType": "contract IFactory",
          "name": "sushiFactory_",
          "type": "address"
        },
        {
          "internalType": "contract IFactory",
          "name": "uniV2Factory_",
          "type": "address"
        },
        {
          "internalType": "contract IERC20",
          "name": "bar_",
          "type": "address"
        },
        {
          "internalType": "contract IBentoBox",
          "name": "bentoBox_",
          "type": "address"
        }
      ],
      "name": "setContracts",
      "outputs": [],
      "stateMutability": "nonpayable",
      "type": "function"
    },
    {
      "inputs": [],
      "name": "sushi",
      "outputs": [
        {
          "internalType": "contract IERC20",
          "name": "",
          "type": "address"
        }
      ],
      "stateMutability": "view",
      "type": "function"
    },
    {
      "inputs": [],
      "name": "sushiFactory",
      "outputs": [
        {
          "internalType": "contract IFactory",
          "name": "",
          "type": "address"
        }
      ],
      "stateMutability": "view",
      "type": "function"
    },
    {
      "inputs": [],
      "name": "uniV2Factory",
      "outputs": [
        {
          "internalType": "contract IFactory",
          "name": "",
          "type": "address"
        }
      ],
      "stateMutability": "view",
      "type": "function"
    }
  ],
  "transactionHash": "0x64f0cc597d31d9cc589965c06f2728be0d3ae1fa194d930fa0420f60980fc599",
  "args": [
    "0xc2EdaD668740f1aA35E4D8f227fB8E17dcA888Cd",
    "0xE11fc0B43ab98Eb91e9836129d1ee7c3Bc95df50",
    "0x6B3595068778DD592e39A122f4f5a5cF09C90fE2",
    "0xC02aaA39b223FE8D0A0e5C4F27eAD9083C756Cc2",
    "0x2260FAC5E5542a773Aa44fBCfeDf7C193bc2C599",
    "0xC0AEe478e3658e2610c5F7A4A2E1777cE9e4f2Ac",
    "0x5C69bEe701ef814a2B6a3EDD4B1652CB9cc5aA6f",
    "0x8798249c2E607446EfB7Ad49eC89dD1865Ff4272",
    "0xB5891167796722331b7ea7824F036b3Bdcb4531C"
  ],
  "solcInputHash": "50353123c06308df73407e8f41b79906",
  "bytecode": "0x60a06040523480156200001157600080fd5b5060405162003a6338038062003a638339810160408190526200003491620000dc565b3360601b608052600080546001600160a01b03199081166001600160a01b039b8c1617909155600180548216998b1699909917909855600280548916978a16979097179096556003805488169589169590951790945560048054871693881693909317909255600580548616918716919091179055600680548516918616919091179055600780548416918516919091179055600880549092169216919091179055620001cb565b60008060008060008060008060006101208a8c031215620000fb578485fd5b89516200010881620001b2565b60208b01519099506200011b81620001b2565b60408b01519098506200012e81620001b2565b60608b01519097506200014181620001b2565b60808b01519096506200015481620001b2565b60a08b01519095506200016781620001b2565b60c08b01519094506200017a81620001b2565b60e08b01519093506200018d81620001b2565b6101008b0151909250620001a181620001b2565b809150509295985092959850929598565b6001600160a01b0381168114620001c857600080fd5b50565b60805160601c613875620001ee60003980612029528061204d52506138756000f3fe608060405234801561001057600080fd5b50600436106101375760003560e01c80636a385ae9116100b8578063a88830601161007c578063a888306014610273578063a959dd8014610288578063ac6091f8146102a8578063ad5c4648146102c8578063ca0f937c146102d0578063febb0f7e146102f057610137565b80636a385ae9146102035780636b2ace87146102235780637ba32d6e1461022b5780637e3e25961461024b5780638da5cb5b1461026b57610137565b80633da04b87116100ff5780633da04b87146101ab5780634a69ac50146101b35780634dede3de146101d357806350655d8c146101db5780635ec54659146101e357610137565b80630a0879031461013c5780631fc8bc5d1461015a57806322984b24146101625780632952dde81461016a5780633009f4141461018b575b600080fd5b6101446102f8565b6040516101519190613258565b60405180910390f35b610144610307565b610144610316565b61017d610178366004612ebf565b610325565b6040516101519291906135f6565b61019e610199366004612e08565b610842565b604051610151919061352b565b610144610e2c565b6101c66101c1366004612ebf565b610e3b565b6040516101519190613487565b610144610f79565b610144610f88565b6101f66101f1366004612d93565b610f97565b60405161015191906137ad565b610216610211366004612e08565b6113bc565b6040516101519190613286565b610144611740565b61023e610239366004612e1c565b61174f565b6040516101519190613718565b61025e610259366004612f1a565b611d34565b6040516101519190613378565b610144612027565b610286610281366004612f4e565b61204b565b005b61029b610296366004612e08565b612139565b60405161015191906133dd565b6102bb6102b6366004612e08565b6123e4565b6040516101519190613447565b610144612524565b6102e36102de366004612db6565b612533565b6040516101519190613323565b61014461271f565b6002546001600160a01b031681565b6000546001600160a01b031681565b6005546001600160a01b031681565b61032d612b0f565b6060610337612b0f565b60008054906101000a90046001600160a01b03166001600160a01b03166317caf6f16040518163ffffffff1660e01b815260040160206040518083038186803b15801561038357600080fd5b505afa158015610397573d6000803e3d6000fd5b505050506040513d601f19601f820116820180604052508101906103bb9190613130565b8152600080546040805163040f1f6d60e11b815290516001600160a01b039092169163081e3eda91600480820192602092909190829003018186803b15801561040357600080fd5b505afa158015610417573d6000803e3d6000fd5b505050506040513d601f19601f8201168201806040525081019061043b9190613130565b6020830181905290506060856001600160401b038111801561045c57600080fd5b5060405190808252806020026020018201604052801561049657816020015b610483612b29565b81526020019060019003908161047b5790505b50905060005b86811015610832578787828181106104b057fe5b905060200201358282815181106104c357fe5b6020908102919091010151526000805481906001600160a01b0316631526fe278b8b868181106104ef57fe5b905060200201356040518263ffffffff1660e01b815260040161051291906137ad565b60806040518083038186803b15801561052a57600080fd5b505afa15801561053e573d6000803e3d6000fd5b505050506040513d601f19601f820116820180604052508101906105629190612e81565b50509150915060008290508085858151811061057a57fe5b6020026020010151602001906001600160a01b031690816001600160a01b031681525050818585815181106105ab57fe5b602002602001015160400181815250506105cd816001600160a01b031661272e565b8585815181106105d957fe5b602002602001015160e001819052506105fa816001600160a01b03166127f1565b85858151811061060657fe5b60200260200101516101000181905250610628816001600160a01b0316612838565b85858151811061063457fe5b6020026020010151610120019060ff16908160ff168152505061065f816001600160a01b03166128f1565b85858151811061066b57fe5b6020026020010151608001906001600160a01b031690816001600160a01b03168152505060006001600160a01b03168585815181106106a657fe5b6020026020010151608001516001600160a01b0316146108275760018585815181106106ce57fe5b60200260200101516060019015159081151581525050806001600160a01b0316630dfe16816040518163ffffffff1660e01b815260040160206040518083038186803b15801561071d57600080fd5b505afa158015610731573d6000803e3d6000fd5b505050506040513d601f19601f820116820180604052508101906107559190612efe565b85858151811061076157fe5b602002602001015160a001906001600160a01b031690816001600160a01b031681525050806001600160a01b031663d21220a76040518163ffffffff1660e01b815260040160206040518083038186803b1580156107be57600080fd5b505afa1580156107d2573d6000803e3d6000fd5b505050506040513d601f19601f820116820180604052508101906107f69190612efe565b85858151811061080257fe5b602002602001015160c001906001600160a01b031690816001600160a01b0316815250505b50505060010161049c565b50919350909150505b9250929050565b606080826001600160401b038111801561085b57600080fd5b5060405190808252806020026020018201604052801561089557816020015b610882612b7c565b81526020019060019003908161087a5790505b50905060005b83811015610e2357600080546001600160a01b03166393f1a40b8787858181106108c157fe5b90506020020135896040518363ffffffff1660e01b81526004016108e69291906137b6565b604080518083038186803b1580156108fd57600080fd5b505afa158015610911573d6000803e3d6000fd5b505050506040513d601f19601f820116820180604052508101906109359190613148565b5090508083838151811061094557fe5b60209081029190910181015101526000546001600160a01b031663195426ec87878581811061097057fe5b90506020020135896040518363ffffffff1660e01b81526004016109959291906137b6565b60206040518083038186803b1580156109ad57600080fd5b505afa1580156109c1573d6000803e3d6000fd5b505050506040513d601f19601f820116820180604052508101906109e59190613130565b8383815181106109f157fe5b60209081029190910101516101200152600080546001600160a01b0316631526fe27888886818110610a1f57fe5b905060200201356040518263ffffffff1660e01b8152600401610a4291906137ad565b60806040518083038186803b158015610a5a57600080fd5b505afa158015610a6e573d6000803e3d6000fd5b505050506040513d601f19601f82011682018060405250810190610a929190612e81565b5050509050868684818110610aa357fe5b90506020020135848481518110610ab657fe5b602090810291909101015152806000610ad76001600160a01b0383166128f1565b90506001600160a01b03811615610e13576000546040516370a0823160e01b81526001600160a01b03848116926370a0823192610b1a9290911690600401613258565b60206040518083038186803b158015610b3257600080fd5b505afa158015610b46573d6000803e3d6000fd5b505050506040513d601f19601f82011682018060405250810190610b6a9190613130565b868681518110610b7657fe5b60209081029190910101516040908101919091526000549051636eb1769f60e11b81526001600160a01b038085169263dd62ed3e92610bbb928f92169060040161326c565b60206040518083038186803b158015610bd357600080fd5b505afa158015610be7573d6000803e3d6000fd5b505050506040513d601f19601f82011682018060405250810190610c0b9190613130565b868681518110610c1757fe5b602090810291909101015160a001526040516370a0823160e01b81526001600160a01b038316906370a0823190610c52908d90600401613258565b60206040518083038186803b158015610c6a57600080fd5b505afa158015610c7e573d6000803e3d6000fd5b505050506040513d601f19601f82011682018060405250810190610ca29190613130565b868681518110610cae57fe5b60200260200101516060018181525050816001600160a01b03166318160ddd6040518163ffffffff1660e01b815260040160206040518083038186803b158015610cf757600080fd5b505afa158015610d0b573d6000803e3d6000fd5b505050506040513d601f19601f82011682018060405250810190610d2f9190613130565b868681518110610d3b57fe5b60200260200101516080018181525050600080836001600160a01b0316630902f1ac6040518163ffffffff1660e01b815260040160606040518083038186803b158015610d8757600080fd5b505afa158015610d9b573d6000803e3d6000fd5b505050506040513d601f19601f82011682018060405250810190610dbf91906130a3565b5091509150816001600160701b0316888881518110610dda57fe5b602002602001015160c0018181525050806001600160701b0316888881518110610e0057fe5b602002602001015160e001818152505050505b50506001909201915061089b9050565b50949350505050565b6006546001600160a01b031681565b606080826001600160401b0381118015610e5457600080fd5b50604051908082528060200260200182016040528015610e8e57816020015b610e7b612bcf565b815260200190600190039081610e735790505b50905060005b83811015610f71576000858583818110610eaa57fe5b9050602002016020810190610ebf9190612d93565b905080838381518110610ece57fe5b60209081029190910101516001600160a01b039182169052610ef190821661272e565b838381518110610efd57fe5b602002602001015160400181905250610f1e816001600160a01b03166127f1565b838381518110610f2a57fe5b602002602001015160600181905250610f4b816001600160a01b0316612838565b60ff16838381518110610f5a57fe5b602090810291909101810151015250600101610e94565b509392505050565b6004546001600160a01b031681565b6001546001600160a01b031681565b6003546000906001600160a01b0383811691161415610fbf5750670de0b6b3a76400006113b7565b60065460009081906001600160a01b03161561105f5760065460035460405163e6a4390560e01b81526001600160a01b039283169263e6a439059261100c9289929091169060040161326c565b60206040518083038186803b15801561102457600080fd5b505afa158015611038573d6000803e3d6000fd5b505050506040513d601f19601f8201168201806040525081019061105c9190612efe565b91505b6005546001600160a01b0316156110fa5760055460035460405163e6a4390560e01b81526001600160a01b039283169263e6a43905926110a79289929091169060040161326c565b60206040518083038186803b1580156110bf57600080fd5b505afa1580156110d3573d6000803e3d6000fd5b505050506040513d601f19601f820116820180604052508101906110f79190612efe565b90505b6001600160a01b03821615801561111857506001600160a01b038116155b15611128576000925050506113b7565b600080806001600160a01b0385161561123457600080866001600160a01b0316630902f1ac6040518163ffffffff1660e01b815260040160606040518083038186803b15801561117757600080fd5b505afa15801561118b573d6000803e3d6000fd5b505050506040513d601f19601f820116820180604052508101906111af91906130a3565b509150915081850194508084019350866001600160a01b0316630dfe16816040518163ffffffff1660e01b815260040160206040518083038186803b1580156111f757600080fd5b505afa15801561120b573d6000803e3d6000fd5b505050506040513d601f19601f8201168201806040525081019061122f9190612efe565b925050505b6001600160a01b0384161561134a57600080856001600160a01b0316630902f1ac6040518163ffffffff1660e01b815260040160606040518083038186803b15801561127f57600080fd5b505afa158015611293573d6000803e3d6000fd5b505050506040513d601f19601f820116820180604052508101906112b791906130a3565b50958101959485019490925090506001600160a01b03831661134757856001600160a01b0316630dfe16816040518163ffffffff1660e01b815260040160206040518083038186803b15801561130c57600080fd5b505afa158015611320573d6000803e3d6000fd5b505050506040513d601f19601f820116820180604052508101906113449190612efe565b92505b50505b6003546001600160a01b038281169116141561139257826001600160701b0316826001600160701b0316670de0b6b3a7640000028161138557fe5b04955050505050506113b7565b816001600160701b0316836001600160701b0316670de0b6b3a7640000028161138557fe5b919050565b606080826001600160401b03811180156113d557600080fd5b5060405190808252806020026020018201604052801561140f57816020015b6113fc612c00565b8152602001906001900390816113f45790505b50905060005b83811015610e2357600085858381811061142b57fe5b90506020020160208101906114409190612d93565b90508083838151811061144f57fe5b60209081029190910101516001600160a01b0391821690526040516370a0823160e01b8152908216906370a082319061148c908a90600401613258565b60206040518083038186803b1580156114a457600080fd5b505afa1580156114b8573d6000803e3d6000fd5b505050506040513d601f19601f820116820180604052508101906114dc9190613130565b8383815181106114e857fe5b6020908102919091018101510152600854604051636eb1769f60e11b81526001600160a01b038084169263dd62ed3e92611528928c92169060040161326c565b60206040518083038186803b15801561154057600080fd5b505afa158015611554573d6000803e3d6000fd5b505050506040513d601f19601f820116820180604052508101906115789190613130565b83838151811061158457fe5b602090810291909101015160600152600854604051633de222bb60e21b81526001600160a01b039091169063f7888aec906115c59084908b9060040161326c565b60206040518083038186803b1580156115dd57600080fd5b505afa1580156115f1573d6000803e3d6000fd5b505050506040513d601f19601f820116820180604052508101906116159190613130565b83838151811061162157fe5b6020026020010151604001818152505082828151811061163d57fe5b60200260200101516040015160001461171357600854604051634ffe34db60e01b81526001600160a01b0390911690634ffe34db90611680908490600401613258565b604080518083038186803b15801561169757600080fd5b505afa1580156116ab573d6000803e3d6000fd5b505050506040513d601f19601f820116820180604052508101906116cf91906130f7565b8484815181106116db57fe5b60200260200101516080018585815181106116f257fe5b60209081029190910101516001600160801b0392831660a090910152911690525b61171c81610f97565b83838151811061172857fe5b602090810291909101015160c0015250600101611415565b6008546001600160a01b031681565b611757612c58565b61175f612c58565b6001600160a01b038616318152836001600160401b038111801561178257600080fd5b506040519080825280602002602001820160405280156117bc57816020015b6117a9612cb2565b8152602001906001900390816117a15790505b5060c082015260005b848110156118bf5760008686838181106117db57fe5b90506020020160208101906117f09190612d93565b9050808360c00151838151811061180357fe5b6020026020010151600001906001600160a01b031690816001600160a01b031681525050806001600160a01b031663574f2ba36040518163ffffffff1660e01b815260040160206040518083038186803b15801561186057600080fd5b505afa158015611874573d6000803e3d6000fd5b505050506040513d601f19601f820116820180604052508101906118989190613130565b8360c0015183815181106118a857fe5b6020908102919091018101510152506001016117c5565b506001600160a01b038316156118de576118d883610f97565b60e08201525b6004546001600160a01b03161561190b57600454611904906001600160a01b0316610f97565b6101208201525b6002546001600160a01b031615611ad557600254611931906001600160a01b0316610f97565b6101008201526002546040516370a0823160e01b81526001600160a01b03909116906370a0823190611967908990600401613258565b60206040518083038186803b15801561197f57600080fd5b505afa158015611993573d6000803e3d6000fd5b505050506040513d601f19601f820116820180604052508101906119b79190613130565b60208201526002546007546040516370a0823160e01b81526001600160a01b03928316926370a08231926119f092911690600401613258565b60206040518083038186803b158015611a0857600080fd5b505afa158015611a1c573d6000803e3d6000fd5b505050506040513d601f19601f82011682018060405250810190611a409190613130565b6040808301919091526002546007549151636eb1769f60e11b81526001600160a01b039182169263dd62ed3e92611a7f928b929091169060040161326c565b60206040518083038186803b158015611a9757600080fd5b505afa158015611aab573d6000803e3d6000fd5b505050506040513d601f19601f82011682018060405250810190611acf9190613130565b60a08201525b6007546001600160a01b031615611bee576007546040516370a0823160e01b81526001600160a01b03909116906370a0823190611b16908990600401613258565b60206040518083038186803b158015611b2e57600080fd5b505afa158015611b42573d6000803e3d6000fd5b505050506040513d601f19601f82011682018060405250810190611b669190613130565b6060820152600754604080516318160ddd60e01b815290516001600160a01b03909216916318160ddd91600480820192602092909190829003018186803b158015611bb057600080fd5b505afa158015611bc4573d6000803e3d6000fd5b505050506040513d601f19601f82011682018060405250810190611be89190613130565b60808201525b6000546001600160a01b031615611d2b5760008060009054906101000a90046001600160a01b03166001600160a01b031663081e3eda6040518163ffffffff1660e01b815260040160206040518083038186803b158015611c4e57600080fd5b505afa158015611c62573d6000803e3d6000fd5b505050506040513d601f19601f82011682018060405250810190611c869190613130565b90506000805b82811015611d225760005460405163065509bb60e21b81526001600160a01b039091169063195426ec90611cc69084908d906004016137b6565b60206040518083038186803b158015611cde57600080fd5b505afa158015611cf2573d6000803e3d6000fd5b505050506040513d601f19601f82011682018060405250810190611d169190613130565b90910190600101611c8c565b50610140830152505b95945050505050565b6060808383036001600160401b0381118015611d4f57600080fd5b50604051908082528060200260200182016040528015611d8957816020015b611d76612cc9565b815260200190600190039081611d6e5790505b509050835b83811015610e2357604051631e3dd18b60e01b81526000906001600160a01b03881690631e3dd18b90611dc59085906004016137ad565b60206040518083038186803b158015611ddd57600080fd5b505afa158015611df1573d6000803e3d6000fd5b505050506040513d601f19601f82011682018060405250810190611e159190612efe565b90506000868303905081848281518110611e2b57fe5b6020026020010151600001906001600160a01b031690816001600160a01b031681525050816001600160a01b0316630dfe16816040518163ffffffff1660e01b815260040160206040518083038186803b158015611e8857600080fd5b505afa158015611e9c573d6000803e3d6000fd5b505050506040513d601f19601f82011682018060405250810190611ec09190612efe565b848281518110611ecc57fe5b6020026020010151602001906001600160a01b031690816001600160a01b031681525050816001600160a01b031663d21220a76040518163ffffffff1660e01b815260040160206040518083038186803b158015611f2957600080fd5b505afa158015611f3d573d6000803e3d6000fd5b505050506040513d601f19601f82011682018060405250810190611f619190612efe565b848281518110611f6d57fe5b6020026020010151604001906001600160a01b031690816001600160a01b031681525050816001600160a01b03166318160ddd6040518163ffffffff1660e01b815260040160206040518083038186803b158015611fca57600080fd5b505afa158015611fde573d6000803e3d6000fd5b505050506040513d601f19601f820116820180604052508101906120029190613130565b84828151811061200e57fe5b6020908102919091010151606001525050600101611d8e565b7f000000000000000000000000000000000000000000000000000000000000000081565b7f00000000000000000000000000000000000000000000000000000000000000006001600160a01b0316331461209c5760405162461bcd60e51b8152600401612093906135c1565b60405180910390fd5b600080546001600160a01b03199081166001600160a01b039b8c1617909155600180548216998b1699909917909855600280548916978a16979097179096556003805488169589169590951790945560048054871693881693909317909255600580548616918716919091179055600680548516918616919091179055600780548416918516919091179055600880549092169216919091179055565b606080826001600160401b038111801561215257600080fd5b5060405190808252806020026020018201604052801561218c57816020015b612179612cf0565b8152602001906001900390816121715790505b50905060005b83811015610e235760008585838181106121a857fe5b90506020020160208101906121bd9190612d93565b9050808383815181106121cc57fe5b6020026020010151600001906001600160a01b031690816001600160a01b031681525050600080826001600160a01b0316630902f1ac6040518163ffffffff1660e01b815260040160606040518083038186803b15801561222c57600080fd5b505afa158015612240573d6000803e3d6000fd5b505050506040513d601f19601f8201168201806040525081019061226491906130a3565b506001600160701b031691506001600160701b031691508185858151811061228857fe5b60200260200101516020018181525050808585815181106122a557fe5b60200260200101516040018181525050826001600160a01b03166370a082318a6040518263ffffffff1660e01b81526004016122e19190613258565b60206040518083038186803b1580156122f957600080fd5b505afa15801561230d573d6000803e3d6000fd5b505050506040513d601f19601f820116820180604052508101906123319190613130565b85858151811061233d57fe5b60200260200101516080018181525050826001600160a01b03166318160ddd6040518163ffffffff1660e01b815260040160206040518083038186803b15801561238657600080fd5b505afa15801561239a573d6000803e3d6000fd5b505050506040513d601f19601f820116820180604052508101906123be9190613130565b8585815181106123ca57fe5b602090810291909101015160600152505050600101612192565b606080826001600160401b03811180156123fd57600080fd5b5060405190808252806020026020018201604052801561243757816020015b612424612b0f565b81526020019060019003908161241c5790505b50905060005b83811015610e235784848281811061245157fe5b9050602002013582828151811061246457fe5b6020908102919091010151526000546001600160a01b03166393f1a40b86868481811061248d57fe5b90506020020135886040518363ffffffff1660e01b81526004016124b29291906137b6565b604080518083038186803b1580156124c957600080fd5b505afa1580156124dd573d6000803e3d6000fd5b505050506040513d601f19601f820116820180604052508101906125019190613148565b5082828151811061250e57fe5b602090810291909101810151015260010161243d565b6003546001600160a01b031681565b606080826001600160401b038111801561254c57600080fd5b5060405190808252806020026020018201604052801561258657816020015b612573612d28565b81526020019060019003908161256b5790505b5090508260005b818110156127145760008686838181106125a357fe5b90506020020160208101906125b89190612d93565b9050808483815181106125c757fe5b60209081029190910101516001600160a01b0391821690526040516370a0823160e01b8152908216906370a0823190612604908b90600401613258565b60206040518083038186803b15801561261c57600080fd5b505afa158015612630573d6000803e3d6000fd5b505050506040513d601f19601f820116820180604052508101906126549190613130565b84838151811061266057fe5b6020908102919091018101510152600854604051633de222bb60e21b81526001600160a01b039091169063f7888aec906126a09084908c9060040161326c565b60206040518083038186803b1580156126b857600080fd5b505afa1580156126cc573d6000803e3d6000fd5b505050506040513d601f19601f820116820180604052508101906126f09190613130565b8483815181106126fc57fe5b6020908102919091010151604001525060010161258d565b509095945050505050565b6007546001600160a01b031681565b60408051600481526024810182526020810180516001600160e01b03166306fdde0360e01b179052905160609160009183916001600160a01b03861691612775919061323c565b600060405180830381855afa9150503d80600081146127b0576040519150601f19603f3d011682016040523d82523d6000602084013e6127b5565b606091505b5091509150816127e057604051806040016040528060038152602001623f3f3f60e81b8152506127e9565b6127e9816129aa565b949350505050565b60408051600481526024810182526020810180516001600160e01b03166395d89b4160e01b179052905160609160009183916001600160a01b03861691612775919061323c565b60408051600481526024810182526020810180516001600160e01b031663313ce56760e01b179052905160009182916060916001600160a01b0386169161287f919061323c565b600060405180830381855afa9150503d80600081146128ba576040519150601f19603f3d011682016040523d82523d6000602084013e6128bf565b606091505b50915091508180156128d2575080516020145b6128dd5760126127e9565b808060200190518101906127e9919061316b565b60408051600481526024810182526020810180516001600160e01b031663c45a015560e01b179052905160009182916060916001600160a01b03861691612938919061323c565b600060405180830381855afa9150503d8060008114612973576040519150601f19603f3d011682016040523d82523d6000602084013e612978565b606091505b509150915081801561298b575080516020145b6129965760006127e9565b808060200190518101906127e99190612efe565b606060408251106129d057818060200190518101906129c99190613009565b90506113b7565b815160201415612aef5760005b60208160ff16108015612a0c5750828160ff16815181106129fa57fe5b01602001516001600160f81b03191615155b15612a19576001016129dd565b60608160ff166001600160401b0381118015612a3457600080fd5b506040519080825280601f01601f191660200182016040528015612a5f576020820181803683370190505b509050600091505b60208260ff16108015612a965750838260ff1681518110612a8457fe5b01602001516001600160f81b03191615155b15612ae657838260ff1681518110612aaa57fe5b602001015160f81c60f81b818360ff1681518110612ac457fe5b60200101906001600160f81b031916908160001a905350600190910190612a67565b91506113b79050565b506040805180820190915260038152623f3f3f60e81b60208201526113b7565b604051806040016040528060008152602001600081525090565b604080516101408101825260008082526020820181905291810182905260608082018390526080820183905260a0820183905260c0820183905260e0820181905261010082015261012081019190915290565b604051806101400160405280600081526020016000815260200160008152602001600081526020016000815260200160008152602001600081526020016000815260200160008152602001600081525090565b604051806080016040528060006001600160a01b031681526020016000815260200160608152602001606081525090565b6040518060e0016040528060006001600160a01b0316815260200160008152602001600081526020016000815260200160006001600160801b0316815260200160006001600160801b03168152602001600081525090565b60405180610160016040528060008152602001600081526020016000815260200160008152602001600081526020016000815260200160608152602001600081526020016000815260200160008152602001600081525090565b604080518082019091526000808252602082015290565b60408051608081018252600080825260208201819052918101829052606081019190915290565b6040518060a0016040528060006001600160a01b03168152602001600081526020016000815260200160008152602001600081525090565b604051806060016040528060006001600160a01b0316815260200160008152602001600081525090565b60008083601f840112612d63578182fd5b5081356001600160401b03811115612d79578182fd5b602083019150836020808302850101111561083b57600080fd5b600060208284031215612da4578081fd5b8135612daf816137fd565b9392505050565b600080600060408486031215612dca578182fd5b8335612dd5816137fd565b925060208401356001600160401b03811115612def578283fd5b612dfb86828701612d52565b9497909650939450505050565b600080600060408486031215612dca578283fd5b60008060008060608587031215612e31578081fd5b8435612e3c816137fd565b935060208501356001600160401b03811115612e56578182fd5b612e6287828801612d52565b9094509250506040850135612e76816137fd565b939692955090935050565b60008060008060808587031215612e96578182fd5b8451612ea1816137fd565b60208601516040870151606090970151919890975090945092505050565b60008060208385031215612ed1578182fd5b82356001600160401b03811115612ee6578283fd5b612ef285828601612d52565b90969095509350505050565b600060208284031215612f0f578081fd5b8151612daf816137fd565b600080600060608486031215612f2e578081fd5b8335612f39816137fd565b95602085013595506040909401359392505050565b60008060008060008060008060006101208a8c031215612f6c578687fd5b8935612f77816137fd565b985060208a0135612f87816137fd565b975060408a0135612f97816137fd565b965060608a0135612fa7816137fd565b955060808a0135612fb7816137fd565b945060a08a0135612fc7816137fd565b935060c08a0135612fd7816137fd565b925060e08a0135612fe7816137fd565b91506101008a0135612ff8816137fd565b809150509295985092959850929598565b60006020828403121561301a578081fd5b81516001600160401b0380821115613030578283fd5b818401915084601f830112613043578283fd5b815181811115613051578384fd5b604051601f8201601f191681016020018381118282101715613071578586fd5b604052818152838201602001871015613088578485fd5b6130998260208301602087016137cd565b9695505050505050565b6000806000606084860312156130b7578081fd5b83516130c281613815565b60208501519093506130d381613815565b604085015190925063ffffffff811681146130ec578182fd5b809150509250925092565b60008060408385031215613109578182fd5b82516131148161382a565b60208401519092506131258161382a565b809150509250929050565b600060208284031215613141578081fd5b5051919050565b6000806040838503121561315a578182fd5b505080516020909101519092909150565b60006020828403121561317c578081fd5b815160ff81168114612daf578182fd5b6000815180845260208085019450808401835b838110156131cf57815180516001600160a01b03168852830151838801526040909601959082019060010161319f565b509495945050505050565b15159052565b6001600160a01b03169052565b600081518084526132058160208601602086016137cd565b601f01601f19169290920160200192915050565b80518252602090810151910152565b6001600160801b03169052565b60ff169052565b6000825161324e8184602087016137cd565b9190910192915050565b6001600160a01b0391909116815260200190565b6001600160a01b0392831681529116602082015260400190565b602080825282518282018190526000919060409081850190868401855b828110156133165781516132b88582516131e0565b80870151858801528581015186860152606080820151908601526080808201516132e482880182613228565b505060a0808201516132f882880182613228565b505060c0908101519085015260e090930192908501906001016132a3565b5091979650505050505050565b602080825282518282018190526000919060409081850190868401855b8281101561331657815180516001600160a01b0316855286810151878601528501518585015260609093019290850190600101613340565b602080825282518282018190526000919060409081850190868401855b8281101561331657815180516001600160a01b039081168652878201518116888701528682015116868601526060908101519085015260809093019290850190600101613395565b602080825282518282018190526000919060409081850190868401855b8281101561331657815180516001600160a01b0316855286810151878601528581015186860152606080820151908601526080908101519085015260a090930192908501906001016133fa565b602080825282518282018190526000919060409081850190868401855b8281101561331657613477848351613219565b9284019290850190600101613464565b60208082528251828201819052600091906040908185019080840286018301878501865b8381101561351d57888303603f19018552815180516001600160a01b031684528781015188850152868101516080888601819052906134ec828701826131ed565b9150506060808301519250858203818701525061350981836131ed565b9689019694505050908601906001016134ab565b509098975050505050505050565b602080825282518282018190526000919060409081850190868401855b828110156133165781518051855286810151878601528581015186860152606080820151908601526080808201519086015260a0808201519086015260c0808201519086015260e08082015190860152610100808201519086015261012090810151908501526101409093019290850190600101613548565b6020808252818101527f4f776e61626c653a2063616c6c6572206973206e6f7420746865206f776e6572604082015260600190565b600060608083016136078487613219565b604084810183905285519182905260809182860190602080820288018501818a01885b8481101561370757607f198b840301865281516101408151855285820151613654878701826131e0565b5088820151898601528a82015161366d8c8701826131da565b508982015161367e8b8701826131e0565b5060a080830151613691828801826131e0565b505060c0808301516136a5828801826131e0565b505060e08083015182828801526136be838801826131ed565b9250505061010080830151868303828801526136da83826131ed565b925050506101208083015192506136f381870184613235565b50968501969350509083019060010161362a565b50909b9a5050505050505050505050565b60006020825282516020830152602083015160408301526040830151606083015260608301516080830152608083015160a083015260a083015160c083015260c08301516101608060e085015261377361018085018361318c565b60e0860151610100868101919091528601516101208087019190915286015161014080870191909152909501519301929092525090919050565b90815260200190565b9182526001600160a01b0316602082015260400190565b60005b838110156137e85781810151838201526020016137d0565b838111156137f7576000848401525b50505050565b6001600160a01b038116811461381257600080fd5b50565b6001600160701b038116811461381257600080fd5b6001600160801b038116811461381257600080fdfea2646970667358221220132043062b25e7160e2f9480be207ff8d912a8822882f998377b85231a9ac00d64736f6c634300060c0033",
  "devdoc": {
    "kind": "dev",
    "methods": {},
    "version": 1
  },
  "userdoc": {
    "kind": "user",
    "methods": {},
    "version": 1
  },
  "storageLayout": {
    "storage": [
      {
        "astId": 948,
        "contract": "contracts/BoringHelper.sol:BoringHelper",
        "label": "chef",
        "offset": 0,
        "slot": "0",
        "type": "t_contract(IMasterChef)138"
      },
      {
        "astId": 950,
        "contract": "contracts/BoringHelper.sol:BoringHelper",
        "label": "maker",
        "offset": 0,
        "slot": "1",
        "type": "t_address"
      },
      {
        "astId": 952,
        "contract": "contracts/BoringHelper.sol:BoringHelper",
        "label": "sushi",
        "offset": 0,
        "slot": "2",
        "type": "t_contract(IERC20)54"
      },
      {
        "astId": 954,
        "contract": "contracts/BoringHelper.sol:BoringHelper",
        "label": "WETH",
        "offset": 0,
        "slot": "3",
        "type": "t_contract(IERC20)54"
      },
      {
        "astId": 956,
        "contract": "contracts/BoringHelper.sol:BoringHelper",
        "label": "WBTC",
        "offset": 0,
        "slot": "4",
        "type": "t_contract(IERC20)54"
      },
      {
        "astId": 958,
        "contract": "contracts/BoringHelper.sol:BoringHelper",
        "label": "sushiFactory",
        "offset": 0,
        "slot": "5",
        "type": "t_contract(IFactory)192"
      },
      {
        "astId": 960,
        "contract": "contracts/BoringHelper.sol:BoringHelper",
        "label": "uniV2Factory",
        "offset": 0,
        "slot": "6",
        "type": "t_contract(IFactory)192"
      },
      {
        "astId": 962,
        "contract": "contracts/BoringHelper.sol:BoringHelper",
        "label": "bar",
        "offset": 0,
        "slot": "7",
        "type": "t_contract(IERC20)54"
      },
      {
        "astId": 964,
        "contract": "contracts/BoringHelper.sol:BoringHelper",
        "label": "bentoBox",
        "offset": 0,
        "slot": "8",
        "type": "t_contract(IBentoBox)932"
      }
    ],
    "types": {
      "t_address": {
        "encoding": "inplace",
        "label": "address",
        "numberOfBytes": "20"
      },
      "t_contract(IBentoBox)932": {
        "encoding": "inplace",
        "label": "contract IBentoBox",
        "numberOfBytes": "20"
      },
      "t_contract(IERC20)54": {
        "encoding": "inplace",
        "label": "contract IERC20",
        "numberOfBytes": "20"
      },
      "t_contract(IFactory)192": {
        "encoding": "inplace",
        "label": "contract IFactory",
        "numberOfBytes": "20"
      },
      "t_contract(IMasterChef)138": {
        "encoding": "inplace",
        "label": "contract IMasterChef",
        "numberOfBytes": "20"
      }
    }
  }
}